{
    "abi": [
        {
            "type": "function",
            "name": "aggregatorProgramHash",
            "inputs": [],
            "outputs": [
                {
                    "name": "",
                    "type": "uint256",
                    "internalType": "uint256"
                }
            ],
            "stateMutability": "view"
        },
        {
            "type": "function",
            "name": "cancelL1ToL2Message",
            "inputs": [
                {
                    "name": "toAddress",
                    "type": "uint256",
                    "internalType": "uint256"
                },
                {
                    "name": "selector",
                    "type": "uint256",
                    "internalType": "uint256"
                },
                {
                    "name": "payload",
                    "type": "uint256[]",
                    "internalType": "uint256[]"
                },
                {
                    "name": "nonce",
                    "type": "uint256",
                    "internalType": "uint256"
                }
            ],
            "outputs": [
                {
                    "name": "",
                    "type": "bytes32",
                    "internalType": "bytes32"
                }
            ],
            "stateMutability": "nonpayable"
        },
        {
            "type": "function",
            "name": "configHash",
            "inputs": [],
            "outputs": [
                {
                    "name": "",
                    "type": "uint256",
                    "internalType": "uint256"
                }
            ],
            "stateMutability": "view"
        },
        {
            "type": "function",
            "name": "consumeMessageFromL2",
            "inputs": [
                {
                    "name": "fromAddress",
                    "type": "uint256",
                    "internalType": "uint256"
                },
                {
                    "name": "payload",
                    "type": "uint256[]",
                    "internalType": "uint256[]"
                }
            ],
            "outputs": [
                {
                    "name": "",
                    "type": "bytes32",
                    "internalType": "bytes32"
                }
            ],
            "stateMutability": "nonpayable"
        },
        {
            "type": "function",
            "name": "getMaxL1MsgFee",
            "inputs": [],
            "outputs": [
                {
                    "name": "",
                    "type": "uint256",
                    "internalType": "uint256"
                }
            ],
            "stateMutability": "pure"
        },
        {
            "type": "function",
            "name": "identify",
            "inputs": [],
            "outputs": [
                {
                    "name": "",
                    "type": "string",
                    "internalType": "string"
                }
            ],
            "stateMutability": "pure"
        },
        {
            "type": "function",
            "name": "initializeContractState",
            "inputs": [
                {
                    "name": "data",
                    "type": "bytes",
                    "internalType": "bytes"
                }
            ],
            "outputs": [],
            "stateMutability": "nonpayable"
        },
        {
            "type": "function",
            "name": "l1ToL2MessageCancellations",
            "inputs": [
                {
                    "name": "msgHash",
                    "type": "bytes32",
                    "internalType": "bytes32"
                }
            ],
            "outputs": [
                {
                    "name": "",
                    "type": "uint256",
                    "internalType": "uint256"
                }
            ],
            "stateMutability": "view"
        },
        {
            "type": "function",
            "name": "l1ToL2MessageNonce",
            "inputs": [],
            "outputs": [
                {
                    "name": "",
                    "type": "uint256",
                    "internalType": "uint256"
                }
            ],
            "stateMutability": "view"
        },
        {
            "type": "function",
            "name": "l1ToL2Messages",
            "inputs": [
                {
                    "name": "msgHash",
                    "type": "bytes32",
                    "internalType": "bytes32"
                }
            ],
            "outputs": [
                {
                    "name": "",
                    "type": "uint256",
                    "internalType": "uint256"
                }
            ],
            "stateMutability": "view"
        },
        {
            "type": "function",
            "name": "l2ToL1Messages",
            "inputs": [
                {
                    "name": "msgHash",
                    "type": "bytes32",
                    "internalType": "bytes32"
                }
            ],
            "outputs": [
                {
                    "name": "",
                    "type": "uint256",
                    "internalType": "uint256"
                }
            ],
            "stateMutability": "view"
        },
        {
            "type": "function",
            "name": "messageCancellationDelay",
            "inputs": [],
            "outputs": [
                {
                    "name": "",
                    "type": "uint256",
                    "internalType": "uint256"
                }
            ],
            "stateMutability": "view"
        },
        {
            "type": "function",
            "name": "processSubContractAddresses",
            "inputs": [
                {
                    "name": "subContractAddresses",
                    "type": "bytes",
                    "internalType": "bytes"
                }
            ],
            "outputs": [],
            "stateMutability": "nonpayable"
        },
        {
            "type": "function",
            "name": "programHash",
            "inputs": [],
            "outputs": [
                {
                    "name": "",
                    "type": "uint256",
                    "internalType": "uint256"
                }
            ],
            "stateMutability": "view"
        },
        {
            "type": "function",
            "name": "sendMessageToL2",
            "inputs": [
                {
                    "name": "toAddress",
                    "type": "uint256",
                    "internalType": "uint256"
                },
                {
                    "name": "selector",
                    "type": "uint256",
                    "internalType": "uint256"
                },
                {
                    "name": "payload",
                    "type": "uint256[]",
                    "internalType": "uint256[]"
                }
            ],
            "outputs": [
                {
                    "name": "",
                    "type": "bytes32",
                    "internalType": "bytes32"
                },
                {
                    "name": "",
                    "type": "uint256",
                    "internalType": "uint256"
                }
            ],
            "stateMutability": "payable"
        },
        {
            "type": "function",
            "name": "setAggregatorProgramHash",
            "inputs": [
                {
                    "name": "newAggregatorProgramHash",
                    "type": "uint256",
                    "internalType": "uint256"
                }
            ],
            "outputs": [],
            "stateMutability": "nonpayable"
        },
        {
            "type": "function",
            "name": "setConfigHash",
            "inputs": [
                {
                    "name": "newConfigHash",
                    "type": "uint256",
                    "internalType": "uint256"
                }
            ],
            "outputs": [],
            "stateMutability": "nonpayable"
        },
        {
            "type": "function",
            "name": "setMessageCancellationDelay",
            "inputs": [
                {
                    "name": "delayInSeconds",
                    "type": "uint256",
                    "internalType": "uint256"
                }
            ],
            "outputs": [],
            "stateMutability": "nonpayable"
        },
        {
            "type": "function",
            "name": "setProgramHash",
            "inputs": [
                {
                    "name": "newProgramHash",
                    "type": "uint256",
                    "internalType": "uint256"
                }
            ],
            "outputs": [],
            "stateMutability": "nonpayable"
        },
        {
            "type": "function",
            "name": "startL1ToL2MessageCancellation",
            "inputs": [
                {
                    "name": "toAddress",
                    "type": "uint256",
                    "internalType": "uint256"
                },
                {
                    "name": "selector",
                    "type": "uint256",
                    "internalType": "uint256"
                },
                {
                    "name": "payload",
                    "type": "uint256[]",
                    "internalType": "uint256[]"
                },
                {
                    "name": "nonce",
                    "type": "uint256",
                    "internalType": "uint256"
                }
            ],
            "outputs": [
                {
                    "name": "",
                    "type": "bytes32",
                    "internalType": "bytes32"
                }
            ],
            "stateMutability": "nonpayable"
        },
        {
            "type": "function",
            "name": "stateBlockHash",
            "inputs": [],
            "outputs": [
                {
                    "name": "",
                    "type": "uint256",
                    "internalType": "uint256"
                }
            ],
            "stateMutability": "view"
        },
        {
            "type": "function",
            "name": "stateBlockNumber",
            "inputs": [],
            "outputs": [
                {
                    "name": "",
                    "type": "int256",
                    "internalType": "int256"
                }
            ],
            "stateMutability": "view"
        },
        {
            "type": "function",
            "name": "stateRoot",
            "inputs": [],
            "outputs": [
                {
                    "name": "",
                    "type": "uint256",
                    "internalType": "uint256"
                }
            ],
            "stateMutability": "view"
        },
        {
            "type": "function",
            "name": "updateState",
            "inputs": [
                {
                    "name": "programOutput",
                    "type": "uint256[]",
                    "internalType": "uint256[]"
                },
                {
                    "name": "onchainDataHash",
                    "type": "uint256",
                    "internalType": "uint256"
                },
                {
                    "name": "onchainDataSize",
                    "type": "uint256",
                    "internalType": "uint256"
                }
            ],
            "outputs": [],
            "stateMutability": "nonpayable"
        },
        {
            "type": "function",
            "name": "updateStateKzgDA",
            "inputs": [
                {
                    "name": "programOutput",
                    "type": "uint256[]",
                    "internalType": "uint256[]"
                },
                {
                    "name": "kzgProofs",
                    "type": "bytes[]",
                    "internalType": "bytes[]"
                }
            ],
            "outputs": [],
            "stateMutability": "nonpayable"
        },
        {
            "type": "function",
            "name": "updateStateOverrideImpl",
            "inputs": [
                {
                    "name": "newBlockNumber",
                    "type": "int256",
                    "internalType": "int256"
                },
                {
                    "name": "newBlockHash",
                    "type": "uint256",
                    "internalType": "uint256"
                },
                {
                    "name": "newGlobalRoot",
                    "type": "uint256",
                    "internalType": "uint256"
                }
            ],
            "outputs": [],
            "stateMutability": "nonpayable"
        },
        {
            "type": "event",
            "name": "AggregatorProgramHashChanged",
            "inputs": [
                {
                    "name": "changedBy",
                    "type": "address",
                    "indexed": true,
                    "internalType": "address"
                },
                {
                    "name": "oldAggregatorProgramHash",
                    "type": "uint256",
                    "indexed": false,
                    "internalType": "uint256"
                },
                {
                    "name": "newAggregatorProgramHash",
                    "type": "uint256",
                    "indexed": false,
                    "internalType": "uint256"
                }
            ],
            "anonymous": false
        },
        {
            "type": "event",
            "name": "ConfigHashChanged",
            "inputs": [
                {
                    "name": "changedBy",
                    "type": "address",
                    "indexed": true,
                    "internalType": "address"
                },
                {
                    "name": "oldConfigHash",
                    "type": "uint256",
                    "indexed": false,
                    "internalType": "uint256"
                },
                {
                    "name": "newConfigHash",
                    "type": "uint256",
                    "indexed": false,
                    "internalType": "uint256"
                }
            ],
            "anonymous": false
        },
        {
            "type": "event",
            "name": "ConsumedMessageToL1",
            "inputs": [
                {
                    "name": "fromAddress",
                    "type": "uint256",
                    "indexed": true,
                    "internalType": "uint256"
                },
                {
                    "name": "toAddress",
                    "type": "address",
                    "indexed": true,
                    "internalType": "address"
                },
                {
                    "name": "payload",
                    "type": "uint256[]",
                    "indexed": false,
                    "internalType": "uint256[]"
                }
            ],
            "anonymous": false
        },
        {
            "type": "event",
            "name": "ConsumedMessageToL2",
            "inputs": [
                {
                    "name": "fromAddress",
                    "type": "address",
                    "indexed": true,
                    "internalType": "address"
                },
                {
                    "name": "toAddress",
                    "type": "uint256",
                    "indexed": true,
                    "internalType": "uint256"
                },
                {
                    "name": "selector",
                    "type": "uint256",
                    "indexed": true,
                    "internalType": "uint256"
                },
                {
                    "name": "payload",
                    "type": "uint256[]",
                    "indexed": false,
                    "internalType": "uint256[]"
                },
                {
                    "name": "nonce",
                    "type": "uint256",
                    "indexed": false,
                    "internalType": "uint256"
                }
            ],
            "anonymous": false
        },
        {
            "type": "event",
            "name": "LogMessageToL1",
            "inputs": [
                {
                    "name": "fromAddress",
                    "type": "uint256",
                    "indexed": true,
                    "internalType": "uint256"
                },
                {
                    "name": "toAddress",
                    "type": "address",
                    "indexed": true,
                    "internalType": "address"
                },
                {
                    "name": "payload",
                    "type": "uint256[]",
                    "indexed": false,
                    "internalType": "uint256[]"
                }
            ],
            "anonymous": false
        },
        {
            "type": "event",
            "name": "LogMessageToL2",
            "inputs": [
                {
                    "name": "fromAddress",
                    "type": "address",
                    "indexed": true,
                    "internalType": "address"
                },
                {
                    "name": "toAddress",
                    "type": "uint256",
                    "indexed": true,
                    "internalType": "uint256"
                },
                {
                    "name": "selector",
                    "type": "uint256",
                    "indexed": true,
                    "internalType": "uint256"
                },
                {
                    "name": "payload",
                    "type": "uint256[]",
                    "indexed": false,
                    "internalType": "uint256[]"
                },
                {
                    "name": "nonce",
                    "type": "uint256",
                    "indexed": false,
                    "internalType": "uint256"
                },
                {
                    "name": "fee",
                    "type": "uint256",
                    "indexed": false,
                    "internalType": "uint256"
                }
            ],
            "anonymous": false
        },
        {
            "type": "event",
            "name": "LogStateTransitionFact",
            "inputs": [
                {
                    "name": "stateTransitionFact",
                    "type": "bytes32",
                    "indexed": false,
                    "internalType": "bytes32"
                }
            ],
            "anonymous": false
        },
        {
            "type": "event",
            "name": "LogStateUpdate",
            "inputs": [
                {
                    "name": "globalRoot",
                    "type": "uint256",
                    "indexed": false,
                    "internalType": "uint256"
                },
                {
                    "name": "blockNumber",
                    "type": "int256",
                    "indexed": false,
                    "internalType": "int256"
                },
                {
                    "name": "blockHash",
                    "type": "uint256",
                    "indexed": false,
                    "internalType": "uint256"
                }
            ],
            "anonymous": false
        },
        {
            "type": "event",
            "name": "MessageToL2Canceled",
            "inputs": [
                {
                    "name": "fromAddress",
                    "type": "address",
                    "indexed": true,
                    "internalType": "address"
                },
                {
                    "name": "toAddress",
                    "type": "uint256",
                    "indexed": true,
                    "internalType": "uint256"
                },
                {
                    "name": "selector",
                    "type": "uint256",
                    "indexed": true,
                    "internalType": "uint256"
                },
                {
                    "name": "payload",
                    "type": "uint256[]",
                    "indexed": false,
                    "internalType": "uint256[]"
                },
                {
                    "name": "nonce",
                    "type": "uint256",
                    "indexed": false,
                    "internalType": "uint256"
                }
            ],
            "anonymous": false
        },
        {
            "type": "event",
            "name": "MessageToL2CancellationStarted",
            "inputs": [
                {
                    "name": "fromAddress",
                    "type": "address",
                    "indexed": true,
                    "internalType": "address"
                },
                {
                    "name": "toAddress",
                    "type": "uint256",
                    "indexed": true,
                    "internalType": "uint256"
                },
                {
                    "name": "selector",
                    "type": "uint256",
                    "indexed": true,
                    "internalType": "uint256"
                },
                {
                    "name": "payload",
                    "type": "uint256[]",
                    "indexed": false,
                    "internalType": "uint256[]"
                },
                {
                    "name": "nonce",
                    "type": "uint256",
                    "indexed": false,
                    "internalType": "uint256"
                }
            ],
            "anonymous": false
        },
        {
            "type": "event",
            "name": "ProgramHashChanged",
            "inputs": [
                {
                    "name": "changedBy",
                    "type": "address",
                    "indexed": true,
                    "internalType": "address"
                },
                {
                    "name": "oldProgramHash",
                    "type": "uint256",
                    "indexed": false,
                    "internalType": "uint256"
                },
                {
                    "name": "newProgramHash",
                    "type": "uint256",
                    "indexed": false,
                    "internalType": "uint256"
                }
            ],
            "anonymous": false
        }
    ],
    "bytecode": {
        "object": "0x6080604052348015600e575f80fd5b50612da78061001c5f395ff3fe60806040526004361061017b575f3560e01c806388251dc1116100cd578063a67f82a311610087578063e1f1176d11610062578063e1f1176d146103ff578063e87e733214610413578063eb27feeb14610432578063eeb7286614610446575f80fd5b8063a67f82a3146103a3578063b5f5004c146103c2578063c99d397f146103e0575f80fd5b806388251dc1146102ff5780638a9bf0901461031e5780639020429c146103325780639588eca2146103515780639be446bf14610365578063a46efaf314610384575f80fd5b8063507ee528116101385780637755264111610113578063775526411461028e57806377c7d7a9146102ad5780637a98660b146102cc5780638303bd8a146102eb575f80fd5b8063507ee5281461023657806354eccba4146102555780636170ff1b1461026f575f80fd5b8063018cccdf1461017f5780632c9dd5c0146101a657806335befa5d146101c5578063382d83e3146101d95780633d07b336146101ed5780633e3aa6c51461020e575b5f80fd5b34801561018a575f80fd5b50610193610491565b6040519081526020015b60405180910390f35b3480156101b1575f80fd5b506101936101c0366004612642565b6104d5565b3480156101d0575f80fd5b506101936105ed565b3480156101e4575f80fd5b506101936105ff565b3480156101f8575f80fd5b5061020c61020736600461268a565b610611565b005b61022161021c3660046126a1565b61065e565b6040805192835260208301919091520161019d565b348015610241575f80fd5b5061020c6102503660046126f0565b6107ee565b348015610260575f80fd5b50670de0b6b3a7640000610193565b34801561027a575f80fd5b50610193610289366004612744565b6108fa565b348015610299575f80fd5b5061020c6102a836600461279a565b610b0d565b3480156102b8575f80fd5b506101936102c736600461268a565b610be7565b3480156102d7575f80fd5b506101936102e6366004612744565b610c00565b3480156102f6575f80fd5b50610193610cd9565b34801561030a575f80fd5b5061020c6103193660046127e7565b610cfb565b348015610329575f80fd5b50610193610d22565b34801561033d575f80fd5b5061020c61034c36600461268a565b610d44565b34801561035c575f80fd5b50610193610d8e565b348015610370575f80fd5b5061019361037f36600461268a565b610d9d565b34801561038f575f80fd5b5061019361039e36600461268a565b610da6565b3480156103ae575f80fd5b5061020c6103bd366004612810565b610daf565b3480156103cd575f80fd5b5061020c6103dc366004612810565b5050565b3480156103eb575f80fd5b5061020c6103fa36600461268a565b610e2a565b34801561040a575f80fd5b50610193610e33565b34801561041e575f80fd5b5061020c61042d36600461268a565b610e55565b34801561043d575f80fd5b50610193610e9f565b348015610451575f80fd5b50604080518082018252601981527f537461726b576172655f537461726b6e65745f323032345f39000000000000006020820152905161019d919061287e565b5f6104d06040518060400160405280602081526020017f535441524b4e45545f312e305f4d5347494e475f4c31544f4c325f4e4f4e4345815250610ebd565b905090565b6040515f9081906104f290869033908690889082906020016128da565b6040516020818303038152906040528051906020012090505f610513610ef0565b5f8381526020919091526040902054116105745760405162461bcd60e51b815260206004820152601a60248201527f494e56414c49445f4d4553534147455f544f5f434f4e53554d4500000000000060448201526064015b60405180910390fd5b336001600160a01b0316857f7a06c571aa77f34d9706c51e5d8122b5595aebeaa34233bfe866f22befb973b186866040516105b0929190612928565b60405180910390a360016105c2610ef0565b5f8381526020019081526020015f205f8282546105df919061294f565b909155509095945050505050565b5f6105f6610f12565b60010154905090565b5f610608610f12565b60020154905090565b337f393c6beb5756a944b2967f15f31ff671e312e945d7a84fd3bdcfd6b408b2dc7961063b610e33565b60408051918252602082018590520160405180910390a261065b81610f5b565b50565b5f805f34116106b95760405162461bcd60e51b815260206004820152602160248201527f4c315f4d53475f4645455f4d5553545f42455f475245415445525f5448414e5f6044820152600360fc1b606482015260840161056b565b670de0b6b3a76400003411156107115760405162461bcd60e51b815260206004820152601760248201527f4d41585f4c315f4d53475f4645455f4558434545444544000000000000000000604482015260640161056b565b5f61071a610491565b90506107676040518060400160405280602081526020017f535441524b4e45545f312e305f4d5347494e475f4c31544f4c325f4e4f4e43458152508260016107629190612962565b610f79565b8587336001600160a01b03167fdb80dd488acf86d17c747445b0eabb5d57c541d3bd7b6b87af987858e5066b2b888886346040516107a89493929190612975565b60405180910390a45f6107be8888888886610fab565b90506107cb346001612962565b6107d3610feb565b5f838152602091909152604090205597909650945050505050565b600a831161083a5760405162461bcd60e51b815260206004820152601960248201527814d5105492d3915517d3d55514155517d513d3d7d4d213d495603a1b604482015260640161056b565b61084e8484610847610f12565b919061100d565b838360088181106108615761086161299b565b905060200201356001146108b05760405162461bcd60e51b8152602060048201526016602482015275554e45585045435445445f4b5a475f44415f464c414760501b604482015260640161056b565b6108c76108c084600a81886129af565b84846110a1565b5f6108d2858561170b565b90506108df85858361173e565b6108f385856108ec610f12565b9190611b09565b5050505050565b5f8486336001600160a01b03167f8abd2ec2e0a10c82f5b60ea00455fa96c41fd144f225fcc52b8d83d94f803ed887878760405161093a939291906129da565b60405180910390a45f6109508787878787610fab565b90505f61095b610feb565b5f838152602091909152604081205491508190036109b25760405162461bcd60e51b81526020600482015260146024820152731393d7d35154d4d051d157d513d7d0d05390d15360621b604482015260640161056b565b5f6109bb611b6a565b5f84815260209190915260408120549150819003610a265760405162461bcd60e51b815260206004820152602260248201527f4d4553534147455f43414e43454c4c4154494f4e5f4e4f545f52455155455354604482015261115160f21b606482015260840161056b565b5f610a2f610cd9565b610a399083612962565b905081811015610a8b5760405162461bcd60e51b815260206004820152601c60248201527f43414e43454c5f414c4c4f5745445f54494d455f4f564552464c4f5700000000604482015260640161056b565b80421015610ae75760405162461bcd60e51b8152602060048201526024808201527f4d4553534147455f43414e43454c4c4154494f4e5f4e4f545f414c4c4f57454460448201526317d6515560e21b606482015260840161056b565b5f610af0610feb565b5f8681526020919091526040902055509198975050505050505050565b600a8311610b595760405162461bcd60e51b815260206004820152601960248201527814d5105492d3915517d3d55514155517d513d3d7d4d213d495603a1b604482015260640161056b565b610b668484610847610f12565b83836008818110610b7957610b7961299b565b905060200201355f14610bc75760405162461bcd60e51b8152602060048201526016602482015275554e45585045435445445f4b5a475f44415f464c414760501b604482015260640161056b565b5f6108d28585604051806040016040528087815260200186815250611b8c565b5f610bf0610feb565b5f92835260205250604090205490565b5f8486336001600160a01b03167f2e00dccd686fd6823ec7dc3e125582aa82881b6ff5f6b5a73856e1ea8338a3be878787604051610c40939291906129da565b60405180910390a45f610c568787878787610fab565b90505f610c61610feb565b5f8381526020919091526040902054905080610cb65760405162461bcd60e51b81526020600482015260146024820152731393d7d35154d4d051d157d513d7d0d05390d15360621b604482015260640161056b565b42610cbf611b6a565b5f8481526020919091526040902055509695505050505050565b5f6104d06040518060600160405280602d8152602001612cdb602d9139610ebd565b610d1d838383610d09610f12565b929190600184019290925560028301559055565b505050565b5f6104d0604051806060016040528060238152602001612cb860239139610ebd565b337f07688623ef226ae0c2f88d3fdc7f6bb41427c804bcec3f36699b07148e3f5340610d6e610e9f565b60408051918252602082018590520160405180910390a261065b81611c01565b5f610d97610f12565b54919050565b5f610bf0611b6a565b5f610bf0610ef0565b5f80808080610dc0868801886129fd565b94509450945094509450610dd385611c23565b610ddc84611c01565b610de583611c45565b610e0c81610df1610f12565b90805182556020810151600183015560400151600290910155565b610e1582610f5b565b610e2162069780611c67565b50505050505050565b61065b81611c67565b5f6104d0604051806060016040528060218152602001612d0860219139610ebd565b337f600a61c1b32ac42fb2fe76e8fc7582a98106668fc16dcd85567cd3937363e49b610e7f610d22565b60408051918252602082018590520160405180910390a261065b81611c23565b5f6104d06040518060600160405280602e8152602001612c8a602e91395b5f8082604051602001610ed09190612ac3565b60408051601f198184030181529190528051602090910120549392505050565b5f6104d0604051806060016040528060238152602001612d2960239139611c89565b5f80604051806060016040528060278152602001612c6360279139604051602001610f3d9190612ac3565b60408051601f19818403018152919052805160209091012092915050565b61065b604051806060016040528060218152602001612d0860219139825b5f82604051602001610f8b9190612ac3565b604051602081830303815290604052805190602001209050818155505050565b6040515f90610fca90339088908590899088908a908290602001612ad5565b60405160208183030381529060405280519060200120905095945050505050565b5f6104d0604051806060016040528060268152602001612d4c60269139611c89565b5f83600101545f190361102c575067080000000000001160c01b611033565b5060018301545b80838360028181106110475761104761299b565b905060200201351461109b5760405162461bcd60e51b815260206004820152601960248201527f494e56414c49445f505245565f424c4f434b5f4e554d42455200000000000000604482015260640161056b565b50505050565b60028310156110ea5760405162461bcd60e51b815260206004820152601560248201527412d691d7d4d151d351539517d513d3d7d4d213d495605a1b604482015260640161056b565b5f84845f8181106110fd576110fd61299b565b905060200201355f1b90505f8585600181811061111c5761111c61299b565b9050602002013590505f8160026111339190612b0c565b61113e906002612962565b905083821461118f5760405162461bcd60e51b815260206004820152601c60248201527f494e56414c49445f4e554d4245525f4f465f4b5a475f50524f4f465300000000604482015260640161056b565b61119a826002612b0c565b6111a49082612962565b8610156111eb5760405162461bcd60e51b815260206004820152601560248201527412d691d7d4d151d351539517d513d3d7d4d213d495605a1b604482015260640161056b565b5f5b828110156117015780495f81900361123c5760405162461bcd60e51b81526020600482015260126024820152710929cac82989288be84989e84be929c888ab60731b604482015260640161056b565b600160f81b815f1a60f81b6001600160f81b0319161461129e5760405162461bcd60e51b815260206004820152601c60248201527f554e45585045435445445f424c4f425f484153485f56455253494f4e00000000604482015260640161056b565b60605f8a8a6112ae866002612b0c565b6112b9906002612962565b8181106112c8576112c861299b565b9050602002013590505f8b8b8660026112e19190612b0c565b6112ec906002612962565b6112f7906001612962565b8181106113065761130661299b565b9050602002013590506001600160c01b0380168211156113615760405162461bcd60e51b81526020600482015260166024820152751253959053125117d2d691d7d0d3d35352551351539560521b604482015260640161056b565b6001600160c01b038111156113b15760405162461bcd60e51b81526020600482015260166024820152751253959053125117d2d691d7d0d3d35352551351539560521b604482015260640161056b565b6040805167ffffffffffffffff1992821b8316602082015292811b9091166038830152805180830360300181526050909201905290505f808b8b6113f6876002612b0c565b6114009089612962565b81811061140f5761140f61299b565b9050602002013590505f8c8c8760026114289190612b0c565b611432908a612962565b61143d906001612962565b81811061144c5761144c61299b565b9050602002013590506001600160801b0380168211156114a05760405162461bcd60e51b815260206004820152600f60248201526e494e56414c49445f595f56414c554560881b604482015260640161056b565b6001600160801b038111156114e95760405162461bcd60e51b815260206004820152600f60248201526e494e56414c49445f595f56414c554560881b604482015260640161056b565b6114f782608083901b612962565b5f1b9250505060308989868181106115115761151161299b565b90506020028101906115239190612b23565b90501461156b5760405162461bcd60e51b8152602060048201526016602482015275494e56414c49445f4b5a475f50524f4f465f53495a4560501b604482015260640161056b565b5f80600a858a85878f8f8c8181106115855761158561299b565b90506020028101906115979190612b23565b6040516020016115ac96959493929190612b66565b60408051601f19818403018152908290526115c691612ac3565b5f60405180830381855afa9150503d805f81146115fe576040519150601f19603f3d011682016040523d82523d5f602084013e611603565b606091505b5091509150816116655760405162461bcd60e51b815260206004820152602760248201527f504f494e545f4556414c554154494f4e5f505245434f4d50494c455f43414c4c60448201526617d1905253115160ca1b606482015260840161056b565b805160208201207fb2157d3a40131b14c4c675335465dffde802f0ce5218ad012284d7f275d1b37c146116f05760405162461bcd60e51b815260206004820152602d60248201527f554e45585045435445445f504f494e545f4556414c554154494f4e5f5052454360448201526c13d35412531157d3d555141555609a1b606482015260840161056b565b5050600190930192506111ed915050565b5050505050505050565b5f828260405160200161171f929190612b99565b6040516020818303038152906040528051906020012090505b92915050565b6117488383611cbb565b611750610e33565b838360078181106117635761176361299b565b90506020020135146117ad5760405162461bcd60e51b81526020600482015260136024820152720929cac82989288be869e9c8c928ebe9082a69606b1b604482015260640161056b565b828260098181106117c0576117c061299b565b905060200201355f146118155760405162461bcd60e51b815260206004820152601960248201527f46554c4c5f4f55545055545f4e4f545f535550504f5254454400000000000000604482015260640161056b565b5f838360068181106118295761182961299b565b905060200201355f146118c45761183e610d22565b848460068181106118515761185161299b565b90506020020135146118b55760405162461bcd60e51b815260206004820152602760248201527f41474752454741544f525f4d4f44455f494e56414c49445f4f535f50524f47526044820152660829abe9082a6960cb1b606482015260840161056b565b6118bd610e9f565b90506118cf565b6118cc610d22565b90505b604080516020808201849052818301859052825180830384018152606090920190925280519101206118ff611d4e565b6001600160a01b0316636a938567826040518263ffffffff1660e01b815260040161192c91815260200190565b602060405180830381865afa158015611947573d5f803e3d5ffd5b505050506040513d601f19601f8201168201806040525081019061196b9190612ba5565b6119b75760405162461bcd60e51b815260206004820152601960248201527f4e4f5f53544154455f5452414e534954494f4e5f50524f4f4600000000000000604482015260640161056b565b6040518381527f9866f8ddfe70bb512b2f2b28b49d4017c43f7ba775f1a20c61c13eea8cdac1119060200160405180910390a16119fe85856119f7610f12565b9190611d70565b5f611a098686611ef4565b9050611a296001611a1c8784818b6129af565b611a24610ef0565b611f8f565b611a339082612962565b9050611a4d5f611a458784818b6129af565b611a24610feb565b611a579082612962565b9050848114611aa85760405162461bcd60e51b815260206004820152601860248201527f535441524b4e45545f4f55545055545f544f4f5f4c4f4e470000000000000000604482015260640161056b565b5f611ab1610f12565b805460018201546002830154604080519384526020840192909252908201529091507fd342ddf7a308dec111745b00315c14b7efb2bdae570a6856e088ed0c65a3576c9060600160405180910390a150505050505050565b81816003818110611b1c57611b1c61299b565b90506020020135836001015414610d1d5760405162461bcd60e51b81526020600482015260126024820152715245454e5452414e43595f4641494c55524560701b604482015260640161056b565b5f6104d0604051806060016040528060308152602001612c3360309139611c89565b5f8281611b99868361170b565b90505f8183865f0151876020015186611bb29190612962565b6040805160208101959095528401929092526060830152608082015260a00160408051601f1981840301815291905280516020909101209050611bf6816001612962565b979650505050505050565b61065b6040518060600160405280602e8152602001612c8a602e913982610f79565b61065b604051806060016040528060238152602001612cb86023913982610f79565b61065b604051806060016040528060228152602001612c11602291398261254a565b61065b6040518060600160405280602d8152602001612cdb602d913982610f79565b5f8082604051602001611c9c9190612ac3565b60408051601f1981840301815291905280516020909101209392505050565b6001600167080000000000001160c01b01602083028401845b81811015611cf45782813510611cec575f9350611cf4565b602001611cd4565b50505080610d1d5760405162461bcd60e51b815260206004820152602160248201527f50524f4752414d5f4f55545055545f56414c55455f4f55545f4f465f52414e476044820152604560f81b606482015260840161056b565b5f6104d0604051806060016040528060228152602001612c1160229139610ebd565b611d7b83838361100d565b5f82826003818110611d8f57611d8f61299b565b90506020020135905083600101548113611deb5760405162461bcd60e51b815260206004820152601860248201527f494e56414c49445f4e45575f424c4f434b5f4e554d4245520000000000000000604482015260640161056b565b60018401819055600284015483836004818110611e0a57611e0a61299b565b9050602002013514611e5e5760405162461bcd60e51b815260206004820152601760248201527f494e56414c49445f505245565f424c4f434b5f48415348000000000000000000604482015260640161056b565b82826005818110611e7157611e7161299b565b6020029190910135600286015550365f611e8b85856125a2565b91509150611e9982826125cb565b865414611ee05760405162461bcd60e51b81526020600482015260156024820152741253959053125117d41491559253d554d7d493d3d5605a1b604482015260640161056b565b611eea82826125ed565b9095555050505050565b5f82826008818110611f0857611f0861299b565b905060200201355f03611f1d5750600a611738565b5f8383611f2c6001600a612962565b818110611f3b57611f3b61299b565b905060200201359050806002611f519190612b0c565b611f5c826002612b0c565b611f68600a6001612962565b611f73906001612962565b611f7d9190612962565b611f879190612962565b949350505050565b5f8084845f818110611fa357611fa361299b565b90506020020135905063400000008110611fff5760405162461bcd60e51b815260206004820152601c60248201527f494e56414c49445f4d4553534147455f5345474d454e545f53495a4500000000604482015260640161056b565b60015f61200c8383612962565b90505f8861201b57600461201e565b60025b90505f5b8284101561245a575f6120358386612962565b905088811061207a5760405162461bcd60e51b8152602060048201526011602482015270135154d4d051d157d513d3d7d4d213d495607a1b604482015260640161056b565b5f8a8a8381811061208d5761208d61299b565b905060200201359050634000000081106120e25760405162461bcd60e51b81526020600482015260166024820152750929cac82989288bea082b2989e8288be988a9c8ea8960531b604482015260640161056b565b5f816120ef846001612962565b6120f99190612962565b90508a81111561214b5760405162461bcd60e51b815260206004820152601960248201527f5452554e43415445445f4d4553534147455f5041594c4f414400000000000000604482015260640161056b565b8c1561225b575f8c8c89908492612164939291906129af565b604051602001612175929190612b99565b6040516020818303038152906040528051906020012090508c8c60018a61219c9190612962565b8181106121ab576121ab61299b565b905060200201356001600160a01b03168d8d5f8b6121c99190612962565b8181106121d8576121d861299b565b905060200201357f4264ac208b5fde633ccdd42e0f12c3d6d443a4f3779bbf886925b94665b63a228f8f60038d61220f9190612962565b61221b928892906129af565b604051612229929190612928565b60405180910390a35f81815260208c90526040812080546001929061224f908490612962565b90915550612450915050565b5f8c8c8990849261226e939291906129af565b60405160200161227f929190612b99565b60408051601f1981840301815291815281516020928301205f818152928e9052912054909150806122f25760405162461bcd60e51b815260206004820152601a60248201527f494e56414c49445f4d4553534147455f544f5f434f4e53554d45000000000000604482015260640161056b565b6122fd60018261294f565b6123079087612962565b5f92835260208d90526040832083905595508d90508c61232860028b612962565b8181106123375761233761299b565b9050602002013590505f8d8d60058b6123509190612962565b61235c928692906129af565b808060200260200160405190810160405280939291908181526020018383602002808284375f81840152601f19601f8201169050808301925050505050505090508d8d60038b6123ac9190612962565b8181106123bb576123bb61299b565b905060200201358e8e60018c6123d19190612962565b8181106123e0576123e061299b565b905060200201358f8f5f8d6123f59190612962565b8181106124045761240461299b565b905060200201356001600160a01b03167f9592d37825c744e33fa80c469683bbd04d336241bb600b574758efd182abe26a8486604051612445929190612bc4565b60405180910390a450505b9550612022915050565b8284146124a95760405162461bcd60e51b815260206004820152601c60248201527f494e56414c49445f4d4553534147455f5345474d454e545f53495a4500000000604482015260640161056b565b801561253c576040515f90339083908381818185875af1925050503d805f81146124ee576040519150601f19603f3d011682016040523d82523d5f602084013e6124f3565b606091505b505090508061253a5760405162461bcd60e51b815260206004820152601360248201527211551217d514905394d1915497d19052531151606a1b604482015260640161056b565b505b509198975050505050505050565b5f61255483610ebd565b6001600160a01b0316146125985760405162461bcd60e51b815260206004820152600b60248201526a1053149150511657d4d15560aa1b604482015260640161056b565b6103dc8282610f79565b365f8381846125b2826002612962565b926125bf939291906129af565b915091505b9250929050565b5f82825f8181106125de576125de61299b565b90506020020135905092915050565b5f828260018181106125de576125de61299b565b5f8083601f840112612611575f80fd5b50813567ffffffffffffffff811115612628575f80fd5b6020830191508360208260051b85010111156125c4575f80fd5b5f805f60408486031215612654575f80fd5b83359250602084013567ffffffffffffffff811115612671575f80fd5b61267d86828701612601565b9497909650939450505050565b5f6020828403121561269a575f80fd5b5035919050565b5f805f80606085870312156126b4575f80fd5b8435935060208501359250604085013567ffffffffffffffff8111156126d8575f80fd5b6126e487828801612601565b95989497509550505050565b5f805f8060408587031215612703575f80fd5b843567ffffffffffffffff811115612719575f80fd5b61272587828801612601565b909550935050602085013567ffffffffffffffff8111156126d8575f80fd5b5f805f805f60808688031215612758575f80fd5b8535945060208601359350604086013567ffffffffffffffff81111561277c575f80fd5b61278888828901612601565b96999598509660600135949350505050565b5f805f80606085870312156127ad575f80fd5b843567ffffffffffffffff8111156127c3575f80fd5b6127cf87828801612601565b90989097506020870135966040013595509350505050565b5f805f606084860312156127f9575f80fd5b505081359360208301359350604090920135919050565b5f8060208385031215612821575f80fd5b823567ffffffffffffffff811115612837575f80fd5b8301601f81018513612847575f80fd5b803567ffffffffffffffff81111561285d575f80fd5b85602082840101111561286e575f80fd5b6020919091019590945092505050565b602081525f82518060208401528060208501604085015e5f604082850101526040601f19601f83011684010191505092915050565b5f6001600160fb1b038311156128c7575f80fd5b8260051b80838637939093019392505050565b8581528460208201528360408201525f611bf66060830184866128b3565b8183525f6001600160fb1b0383111561290f575f80fd5b8260051b80836020870137939093016020019392505050565b602081525f611f876020830184866128f8565b634e487b7160e01b5f52601160045260245ffd5b818103818111156117385761173861293b565b808201808211156117385761173861293b565b606081525f6129886060830186886128f8565b6020830194909452506040015292915050565b634e487b7160e01b5f52603260045260245ffd5b5f80858511156129bd575f80fd5b838611156129c9575f80fd5b5050600583901b0193919092039150565b604081525f6129ed6040830185876128f8565b9050826020830152949350505050565b5f805f805f85870360e0811215612a12575f80fd5b863595506020870135945060408701356001600160a01b0381168114612a36575f80fd5b93506060878101359350607f1982011215612a4f575f80fd5b506040516060810181811067ffffffffffffffff82111715612a7f57634e487b7160e01b5f52604160045260245ffd5b60409081526080880135825260a0880135602083015260c090970135968101969096525092959194509290565b5f81518060208401855e5f93019283525090919050565b5f612ace8284612aac565b9392505050565b8781528660208201528560408201528460608201528360808201525f612aff60a0830184866128b3565b9998505050505050505050565b80820281158282048414176117385761173861293b565b5f808335601e19843603018112612b38575f80fd5b83018035915067ffffffffffffffff821115612b52575f80fd5b6020019150368190038213156125c4575f80fd5b8681528560208201528460408201525f612b836060830186612aac565b838582375f930192835250909695505050505050565b5f611f878284866128b3565b5f60208284031215612bb5575f80fd5b81518015158114612ace575f80fd5b604080825283519082018190525f9060208501906060840190835b81811015612bfd578351835260209384019390920191600101612bdf565b505060209390930193909352509291505056fe535441524b4e45545f312e305f494e49545f56455249464945525f41444452455353535441524b4e45545f312e305f4d5347494e475f4c31544f4c325f43414e43454c4c4154494f4e5f4d41505050494e47535441524b4e45545f312e305f494e49545f535441524b4e45545f53544154455f535452554354535441524b4e45545f312e305f494e49545f41474752454741544f525f50524f4752414d5f484153485f55494e54535441524b4e45545f312e305f494e49545f50524f4752414d5f484153485f55494e54535441524b4e45545f312e305f4d5347494e475f4c31544f4c325f43414e43454c4c4154494f4e5f44454c4159535441524b4e45545f312e305f535441524b4e45545f434f4e4649475f48415348535441524b4e45545f312e305f4d5347494e475f4c32544f4c315f4d41505050494e47535441524b4e45545f312e305f4d5347494e475f4c31544f4c325f4d41505050494e475f5632a26469706673582212203b40191f65605f5f657d22227ab0a5875c94a794bd3252622fc637f9bcaf223164736f6c634300081a0033",
        "linkReferences": {}
    },
    "methodIdentifiers": {
        "aggregatorProgramHash()": "eb27feeb",
        "cancelL1ToL2Message(uint256,uint256,uint256[],uint256)": "6170ff1b",
        "configHash()": "e1f1176d",
        "consumeMessageFromL2(uint256,uint256[])": "2c9dd5c0",
        "getMaxL1MsgFee()": "54eccba4",
        "identify()": "eeb72866",
        "initializeContractState(bytes)": "a67f82a3",
        "l1ToL2MessageCancellations(bytes32)": "9be446bf",
        "l1ToL2MessageNonce()": "018cccdf",
        "l1ToL2Messages(bytes32)": "77c7d7a9",
        "l2ToL1Messages(bytes32)": "a46efaf3",
        "messageCancellationDelay()": "8303bd8a",
        "processSubContractAddresses(bytes)": "b5f5004c",
        "programHash()": "8a9bf090",
        "sendMessageToL2(uint256,uint256,uint256[])": "3e3aa6c5",
        "setAggregatorProgramHash(uint256)": "9020429c",
        "setConfigHash(uint256)": "3d07b336",
        "setMessageCancellationDelay(uint256)": "c99d397f",
        "setProgramHash(uint256)": "e87e7332",
        "startL1ToL2MessageCancellation(uint256,uint256,uint256[],uint256)": "7a98660b",
        "stateBlockHash()": "382d83e3",
        "stateBlockNumber()": "35befa5d",
        "stateRoot()": "9588eca2",
        "updateState(uint256[],uint256,uint256)": "77552641",
        "updateStateKzgDA(uint256[],bytes[])": "507ee528",
        "updateStateOverrideImpl(int256,uint256,uint256)": "88251dc1"
    },
    "id": 3
}